:10000000A2EF04F0F2D01200046ED8CF05F0E0CFDA
:1000100006F00001E9CF0CF0EACF07F0E1CF08F0DD
:10002000E2CF09F0D9CF0AF0DACF0BF0F3CF12F01C
:10003000F4CF13F0FACF14F0F5CF15F0F6CF16F099
:10004000F7CF17F000C00EF001C00FF002C010F0A3
:1000500003C011F09DA030EF00F09EB07DEF00F0E6
:100060009DAA36EF00F09EBABAEF00F00EC000F085
:100070000FC001F010C002F011C003F00CC0E9FF86
:1000800007C0EAFF078E08C0E1FF09C0E2FF0AC00F
:10009000D9FF0BC0DAFF12C0F3FF13C0F4FF14C086
:1000A000FAFF15C0F5FF16C0F6FF17C0F7FF0450A2
:1000B00006C0E0FF05C0D8FF1000F76ACA0FF66E51
:1000C000000EF7220900F55012000104020003029D
:1000D00004400503063307E408C00900194225401F
:1000E0002607281029DC2D032E882F2D300137906C
:1000F00038423C8F3D126F30FF00010E2026D8B0F1
:10010000212AD8B4222AD8B4232A9E9036EF00F0B0
:100110009EAAFED7ABCF1FF0AECF01F01FA202D038
:10012000AB98AB88BBEF00F010C112F10101105188
:100130000D2711510E230EC103F00DC1E9FF0EC1B1
:10014000EAFFEF5212E00EC103F00DC1E9FF0EC14C
:10015000EAFF0F51EF5C03E112C101F008D0125128
:10016000122B0D2BD8B40E2BE6D7FF0E016E00011B
:10017000D0EF00F0CDD701C0ADF0AD51240A03E0BF
:100180002E0A03E024D0AC6B22D0AF2B01010E6B02
:100190002C0E0D6F410E0F6F116B106B0001C4D749
:1001A0000150110814E12C50240811E12D5047088A
:1001B0000EE12E5050080BE12F50520808E130504C
:1001C0004D0805E13150430802E1010EAE6FAC511C
:1001D000AC2B7F0B036A2C0FE96E000E0320EA6E36
:1001E000ADC0EFFF9E9A36EF00F020C001F0CE5078
:1001F000CFCF03F09D90026E2050015C04E0CE5002
:10020000CFCF03F001D0025003C000F020C001F0B6
:1002100021C002F022C003F02350E8320332023240
:10022000013200329D8003EF00F0959E8C9E1200FB
:1002300001010B6B959C8C9C080E0C6F0C5314E009
:10024000959C8C9C0AAF03D0959A8C8A02D0959A83
:100250008C9A959C8C8C958883A801D00B81D89022
:100260000A3700000C07EAD7959C8C9C959A8C8ADB
:100270000BC101F000011200959E8C8E1200D5DF9B
:10028000010107518009096F0A6F0001D1DF08C120
:100290000AF1CEDFF1DF12000101076B959A8C8A1B
:1002A000080E086F08530EE0959C8C9CD890073779
:1002B000959C8C8C958883A802D0078101D0000082
:1002C0000807F0D7959C8C9C07C101F0000172EFE4
:1002D00001F0ABDF010105517F0B076F0A6F0001D1
:1002E000A7DFDAD701C006F1C7DF010106C101F0BF
:1002F000000112002A90F7B12A802AA002D00F0E26
:1003000001D01A0EF86F130E0101076FF8C008F143
:100310000001B5DF2AA012D0110E0101056F000106
:10032000D8DF01501F0B40092009F86F110E0101A1
:10033000076FF8C008F10001A2DF0AD02B50800936
:10034000F86F110E0101076FF8C008F1000197DF87
:1003500012000101055302E05D0E01D0550E066F3B
:100360005A0E076F06C108F1000189DF010105532C
:1003700002E07C0E01D0700E066F5C0E076F06C1A6
:1003800008F100017CDF120028500101045D01E149
:100390007ED00451040A000109E0070A1FE0010AA7
:1003A00034E0030A43E0010A52E061D0010E01018A
:1003B000056F00018EDF0150E30B0C090101056F91
:1003C000010E076F05C108F1000159DF2AA005D011
:1003D000010E0101056F0001BCDF4CD0010E0101CF
:1003E000056F000176DF0150E30B10090101056F75
:1003F000010E076F05C108F1000141DF2AA004D0FA
:100400000101056B0001A5DF35D0010E0101056F6B
:1004100000015FDF0150E30B08090101056F010EC8
:10042000076F05C108F100012ADF24D0010E010188
:10043000056F00014EDF0150E30B04090101056F58
:10044000010E076F05C108F1000119DF13D0010E7D
:100450000101056F00013DDF0150E30B0101056F54
:10046000010E076F05C108F1000109DF03D001018A
:100470000ED00001285208E1270E0101056F00018E
:1004800028DF0150800BF6E004C128F001010001D3
:100490001200959E8C8EB6DD03C0F3F002C0F2F020
:1004A00001C0F1F000C0F0F0320EF46F2F0E010128
:1004B000076FAA0E086F0001E2DE2F0E0101056F23
:1004C000000107DF0150AA0819E09CDD03C0F9F024
:1004D00002C0F8F001C0F7F000C0F6F0F051F65F8E
:1004E000F151F75BF251F85BF351F95B07E1F85317
:1004F00005E1F75303E1F451F65DD8E383DD03C072
:10050000F3F002C0F2F001C0F1F000C0F0F02F0EE5
:100510000101076F550E086F0001B1DE2F0E0101BA
:10052000056F0001D6DE0150550819E06BDD03C0F0
:10053000F9F002C0F8F001C0F7F000C0F6F0F05199
:10054000F65FF151F75BF251F85BF351F95B07E1AC
:10055000F85305E1F75303E1F451F65DD8E3F56B89
:10056000D890F535F76BF66FF7C003F0F651A5DDBF
:10057000FF081DE0D890F535F76BF66FF7C003F074
:10058000F6519BDDF86FD890F535FA6BF96F010ED7
:10059000F925016E000EFA21036E01508EDDF96F10
:1005A000F8C007F1E8CF08F16ADEF52BD9D7000EC5
:1005B0002AB0010EF66FF76F9DDE010E0101046F88
:1005C0000001E2DE1FDD03C0F3F002C0F2F001C063
:1005D000F1F000C0F0F0270E0101056F000179DE97
:1005E0000150800B19E10EDD03C0F9F002C0F8F0F4
:1005F00001C0F7F000C0F6F0F051F65FF151F75B83
:10060000F251F85BF351F95B07E1F85305E1F75359
:1006100003E1F451F65DDFE3F5DC03C0F9F002C05D
:10062000F8F001C0F7F000C0F6F0F051F65FF151BC
:10063000F75BF251F85BF351F95B07E1F85305E121
:10064000F75303E1F451F65D03E3000E016E04D0AD
:10065000EFC029F0010E016EEAEF04F0EA6AF00E35
:10066000E96EEF500DE0060E016E006A002EFED717
:10067000012EFBD77B0E006E002EFED7EF2EF3D798
:100680001200EF6BEF513C081AE3036AEF512C0F95
:10069000016E000E032203C0F1F0070EEF25036A7E
:1006A0002C0FE96E000E0320EA6EEFCFF2F0F1C0DE
:1006B000EAFF01C0E9FFF2C0EFFFEF2BE3D7FCEF49
:1006C00004F0EEC0EAFFEDC0E9FFF1C0EFFFE92A58
:1006D000D8B4EA2AEF6AED2BD8B4EE2B79EF03F009
:1006E000EF520FE0EACFF0F0E9CFEFF0EFCFF1F00B
:1006F000E8D7F0C0EAFFEFC0E9FFE92AD8B4EA2A58
:10070000EFD708EF05F0FA6BF96BF8530FE0230E03
:100710000101076F010E086F0001B1DD230E010119
:10072000056F0001D6DD0150020BF8E0240E010137
:10073000056F0001CEDD011CF96FF92BD8B4FA2B3F
:10074000D890FA33F933F9C001F0FAC002F0B1EFF2
:1007500003F02850030816E1255214E1010EF86F4A
:10076000D2D702C0F9F001C0F8F0F9530BE12450E0
:10077000F85D08E2010E0101046F000105DE010EC3
:10078000016E02D0000E016E76EF04F0010E010141
:10079000046F0001F9DD270E0101056F000199DDED
:1007A0000150800BF8E0250E0101076F086B000176
:1007B00066DDFB513D0802E23D0EFB6FFE6BFD5313
:1007C00003E0800EFE6F04D0FC5302E0400EFE6F8B
:1007D0002CDD800E01010A6F00012ADD030EFB25CE
:1007E0000101046F0A6F000123DDF8C00AF120DD6A
:1007F00029C00AF11DDDFEC00AF11ADDFF6BFB51B5
:10080000FF5D0BE2FF51F925E96E000EFA21EA6E59
:10081000EFCF0AF10DDDFF2BF2D72EDD040E010123
:10082000046F0001B1DDF5EC00F003C003F102C07C
:1008300002F101C001F100C000F1938081B02DD020
:10084000F5EC00F003C008F102C007F101C006F1A9
:1008500000C005F101010051055F0151065B025125
:10086000075B0351085BD8B402D0000116D00753D0
:10087000D8B402D0000111D006510308D8B002D07C
:1008800000010BD0D8B402D00001D7D70551E7083A
:10089000D8A002D00001D1D70001280E0101056FB8
:1008A000000117DD000BF9E1010E0101046F0001E9
:1008B0006BDDA0EF04F03D0E0101056F000109DDC5
:1008C0000150FB0B0409F86F3D0E0101076FF8C0E2
:1008D00008F10001D4DCF5EC00F003C0F7F002C031
:1008E000F6F001C0F5F000C0F4F033D701521CE17E
:1008F000F5EC00F003C0FBF002C0FAF001C0F9F023
:1009000000C0F8F0F451F85FF551F95BF651FA5B6D
:10091000F751FB5B09E1FA5307E1F951030804E3DE
:10092000E4E1F851E708E1E2EFC0F8F0F1C0FAF0D5
:10093000F0C0F9F0F2C0FBF0F3C0FCF0FD6B26D77D
:1009400011EF05F0F86AD09E078EFE0E006E080EBD
:10095000016E020EE96E000EEA6EEE6A002EFDD701
:10096000012EFBD71F6AB886080EAF6E020EB06E5E
:10097000A60EAC6E900EAB6E236A226A216A206AC4
:10098000B50ECD6ECF6ACE6A9E909D80A60E246E67
:100990002A801F0E2B6EAC6BAE6BAF6BEE6BED6BEC
:1009A000C150C00B0F09C16E070EB46E196A1A6AE6
:1009B000256A266A276A286A296A010E936E800EC4
:1009C000946E100E956E959E8C8E959C8C9C020E4E
:1009D000EF6F5FD5020EEF6FFA0EF06F3FDEEF2F75
:1009E000FBD7010EF76F86DC95948C84C00EF21253
:1009F0009D8AAE5325E045D6EE6BB00EED6FEEC08E
:100A0000EAFFEDC0E9FFEF6AEA6A2C0EE96E68D6EC
:100A1000010EEF6FF16BB00EF06F3D0EF26FF36BE6
:100A20004AD7640EF06F1ADE95948C94500EEF6FD7
:100A3000FA0EF06F13DEEF2FFBD795948C84AE6B1C
:040A4000D8D7030000
:020000040030CA
:0E00000004CC191E0007A1000FC00FE00F4036
:00000001FF
;PIC18F4550
;CRC=1594  CREATED="13-may.-17 15:29"
