:10000000EEEF04F022D11200046ED8CF05F0E0CF5D
:1000100006F00001E9CF0CF0EACF07F0E1CF08F0DD
:10002000E2CF09F0D9CF0AF0DACF0BF0F3CF12F01C
:10003000F4CF13F0FACF14F0F5CF15F0F6CF16F099
:10004000F7CF17F000C00EF001C00FF002C010F0A3
:1000500003C011F09DA030EF00F09EB08BEF00F0D8
:100060009DA236EF00F09EB296EF00F0F0A83CEFB4
:1000700000F0F0B212EF01F09DAA42EF00F09EBA3C
:10008000D7EF00F00EC000F00FC001F010C002F07A
:1000900011C003F00CC0E9FF07C0EAFF078E08C0DB
:1000A000E1FF09C0E2FF0AC0D9FF0BC0DAFF12C0AE
:1000B000F3FF13C0F4FF14C0FAFF15C0F5FF16C01C
:1000C000F6FF17C0F7FF045006C0E0FF05C0D8FFD9
:1000D0001000F76AE20FF66E000EF7220900F550E5
:1000E0001200010402000368042B0503063307E431
:1000F00008C0090011FF131A1942254026072810CD
:1001000029DC2D032E882F2D3001379038423C8F6B
:100110003D126F30FF00010E2026D8B0212AD8B43E
:10012000222AD8B4232A9E9042EF00F0F007F05321
:1001300009E1EF2BEF51150803E1EF6B95948C84E7
:10014000010EF06F9E9242EF00F09EAAFED7ABCF59
:100150001FF0AECF01F01FA202D0AB98AB88D8EF52
:1001600000F018C11AF10101185115271951162371
:1001700016C103F015C1E9FF16C1EAFFEF5212E004
:1001800016C103F015C1E9FF16C1EAFF1751EF5C74
:1001900003E11AC101F008D01A511A2B152BD8B45B
:1001A000162BE6D7FF0E016E0001EDEF00F0CDD764
:1001B00001C0ADF0AD51240A03E02E0A03E024D0C3
:1001C000AC6B22D0B12B0101166B2C0E156F410EBA
:1001D000176F196B186B0001C4D70150110814E197
:1001E0002C50240811E12D5047080EE12E505008E4
:1001F0000BE12F50520808E130504D0805E1315015
:10020000430802E1010EB06FAC51AC2B7F0B036AC7
:100210002C0FE96E000E0320EA6EADC0EFFF9E9A30
:1002200042EF00F0AF5304E1010EAF6F320EAE6F3C
:10023000F09242EF00F04552524F522C64657363C6
:100240006F6E65637461646F000020C001F0CE5072
:10025000CFCF03F09D90026E2050015C04E0CE50A1
:10026000CFCF03F001D0025003C000F020C001F056
:1002700021C002F022C003F02350E83203320232E0
:10028000013200329D8003EF00F0959E8C9E12009B
:100290000101136B959C8C9C080E146F145314E091
:1002A000959C8C9C12AF03D0959A8C8A02D0959A1B
:1002B0008C9A959C8C8C958883A801D01381D890BA
:1002C000123700001407EAD7959C8C9C959A8C8A6B
:1002D00013C101F000011200959E8C8E1200D5DF33
:1002E00001010F518009116F126F0001D1DF10C1A0
:1002F00012F1CEDFF1DF120001010F6B959A8C8AAB
:10030000080E106F10530EE0959C8C9CD8900F3700
:10031000959C8C8C958883A802D00F8101D0000019
:100320001007F0D7959C8C9C0FC101F00001A2EF43
:1003300001F0ABDF01010D517F0B0F6F126F000158
:10034000A7DFDAD701C00EF1C7DF01010EC101F04E
:10035000000112002A90FCB12A802AA002D00F0EC0
:1003600001D01A0EFD6F130E01010F6FFDC010F1C9
:100370000001B5DF2AA012D0110E01010D6F00019E
:10038000D8DF01501F0B40092009FD6F110E01013C
:100390000F6FFDC010F10001A2DF0AD02B508009C1
:1003A000FD6F110E01010F6FFDC010F1000197DF0D
:1003B000120001010D5302E05D0E01D0550E0E6FCB
:1003C0005A0E0F6F0EC110F1000189DF01010D53AC
:1003D00002E07C0E01D0700E0E6F5C0E0F6F0EC12E
:1003E00010F100017CDF1200285001010C5D01E1D9
:1003F0007ED00C51040A000109E0070A1FE0010A3F
:1004000034E0030A43E0010A52E061D0010E010129
:100410000D6F00018EDF0150E30B0C0901010D6F20
:10042000010E0F6F0DC110F1000159DF2AA005D098
:10043000010E01010D6F0001BCDF4CD0010E010166
:100440000D6F000176DF0150E30B100901010D6F04
:10045000010E0F6F0DC110F1000141DF2AA004D081
:1004600001010D6B0001A5DF35D0010E01010D6FFB
:1004700000015FDF0150E30B080901010D6F010E60
:100480000F6F0DC110F100012ADF24D0010E010110
:100490000D6F00014EDF0150E30B040901010D6FE8
:1004A000010E0F6F0DC110F1000119DF13D0010E05
:1004B00001010D6F00013DDF0150E30B01010D6FE4
:1004C000010E0F6F0DC110F1000109DF03D0010112
:1004D0000ED00001285208E1270E01010D6F000126
:1004E00028DF0150800BF6E00CC128F0010100016B
:1004F0001200959E8C8E86DD03C0F8F002C0F7F0E6
:1005000001C0F6F000C0F5F0320EF96F2F0E0101B8
:100510000F6FAA0E106F0001E2DE2F0E01010D6FAA
:10052000000107DF0150AA0819E06CDD03C0FEF0EE
:1005300002C0FDF001C0FCF000C0FBF0F551FB5F14
:10054000F651FC5BF751FD5BF851FE5B07E1FD5393
:1005500005E1FC5303E1F951FB5DD8E353DD03C032
:10056000F8F002C0F7F001C0F6F000C0F5F02F0E71
:1005700001010F6F550E106F0001B1DE2F0E01014A
:100580000D6F0001D6DE0150550819E03BDD03C0B8
:10059000FEF002C0FDF001C0FCF000C0FBF0F55120
:1005A000FB5FF651FC5BF751FD5BF851FE5B07E129
:1005B000FD5305E1FC5303E1F951FB5DD8E3FA6B10
:1005C000D890FA35FC6BFB6FFCC003F0FB5181DD6A
:1005D000FF081DE0D890FA35FC6BFB6FFCC003F000
:1005E000FB5177DDFD6FD890FA35FF6BFE6F010E82
:1005F000FE25016E000EFF21036E01506ADDFE6FC5
:10060000FDC00FF1E8CF10F16ADEFA2BD9D7000E4A
:100610002AB0010EFB6FFC6F9DDE010E01010C6F15
:100620000001E2DEEFDC03C0F8F002C0F7F001C029
:10063000F6F000C0F5F0270E01010D6F000179DE24
:100640000150800B19E1DEDC03C0FEF002C0FDF0BA
:1006500001C0FCF000C0FBF0F551FB5FF651FC5B04
:10066000F751FD5BF851FE5B07E1FD5305E1FC53DB
:1006700003E1F951FB5DDFE3C5DC03C0FEF002C01E
:10068000FDF001C0FCF000C0FBF0F551FB5FF6513E
:10069000FC5BF751FD5BF851FE5B07E1FD5305E1A3
:1006A000FC5303E1F951FB5D03E3000E016E04D03E
:1006B000F4C029F0010E016E36EF05F0EA6AF50E7E
:1006C000E96EEF500DE0060E016E006A002EFED7B7
:1006D000012EFBD77B0E006E002EFED7EF2EF3D738
:1006E0001200F46BF4513C081AE3036AF4512C0F26
:1006F000016E000E032203C0F6F0070EF425036A14
:100700002C0FE96E000E0320EA6EEFCFF7F0F6C073
:10071000EAFF01C0E9FFF7C0EFFFF42BE3D766EF74
:1007200005F0F2C0EAFFF1C0E9FFF6C0EFFFE92AE9
:10073000D8B4EA2AEF6AF12BD8B4F22B1200EF52A8
:100740000FE0EACFF5F0E9CFF4F0EFCFF6F0E9DF14
:10075000F5C0EAFFF4C0E9FFE92AD8B4EA2AEFD7E6
:1007600072EF05F0FF6BFE6BFD530FE0230E0101EE
:100770000F6F010E106F0001B2DD230E01010D6F2E
:100780000001D7DD0150020BF8E0240E01010D6FCE
:100790000001CFDD011CFE6FFE2BD8B4FF2BD890DB
:1007A000FF33FE33FEC001F0FFC002F0E0EF03F0C4
:1007B0002850030816E1255214E1010EFD6FD2D72F
:1007C00002C0FEF001C0FDF0FE530BE12450FD5DC0
:1007D00008E2010E01010C6F000106DE010E016E40
:1007E00002D0000E016EABEF04F0010E01010C6FA0
:1007F0000001FADD270E01010D6F00019ADD0150A5
:10080000800BF8E0250E01010F6F106B000167DD12
:10081000010100513D0802E23D0E006F036B0253DF
:1008200003E0800E036F04D0015302E0400E036F1B
:1008300000012BDD800E0101126F000129DD030E86
:1008400001010025096F126F000122DDFDC012F1C8
:100850001FDD29C012F11CDD03C112F119DD0101F8
:10086000046B0051045D0DE204510001FE25E96EA8
:10087000000EFF21EA6EEFCF12F10ADD0101042B19
:10088000F0D7000129DD040E01010C6F0001ACDD81
:1008900002EC00F003C008F102C007F101C006F14C
:1008A00000C005F1938081B02DD002EC00F003C0B0
:1008B0000DF102C00CF101C00BF100C00AF1010101
:1008C00005510A5F06510B5B07510C5B08510D5B2C
:1008D000D8B402D0000116D00C53D8B402D0000115
:1008E00011D00B510308D8B002D000010BD0D8B4FE
:1008F00002D00001D7D70A51E708D8A002D00001E2
:10090000D1D70001280E01010D6F000112DD000B8F
:10091000F9E1010E01010C6F000166DDDCEF04F06E
:100920003D0E01010D6F000104DD0150FB0B0409B8
:10093000FD6F3D0E01010F6FFDC010F10001CFDC16
:1009400002EC00F003C0FCF002C0FBF001C0FAF0C2
:1009500000C0F9F02DD7015221E102EC00F003C0F4
:1009600000F102C0FFF001C0FEF000C0FDF0F9513F
:10097000FD5FFA51FE5BFB51FF5BFC510101005B27
:10098000D8B402D000010AD00001FF5307E1FE51A4
:10099000030804E3DFE1FD51E708DCE2F4C0FDF009
:1009A000F6C0FFF0F5C0FEF0F7C000F1F8C001F1AD
:1009B0000101026B000119D712000900F5520CE089
:1009C000F6CFF4F0F7CFF5F0F5CFF6F0AADEF4C0ED
:1009D000F6FFF5C0F7FFF1D78AEF05F0F86AD09E71
:1009E000078EFE0E006E080E016E020EE96E000EFE
:1009F000EA6EEE6A002EFDD7012EFBD71F6AB8867D
:100A0000080EAF6E020EB06EA60EAC6E900EAB6E00
:100A1000236A226A216A206AB50ECD6ECF6ACE6A39
:100A20009E909D80A60E246E2A801F0E2B6EAC6BAE
:100A3000B06BB16BF26BF16BC150C00B0F09C16EA3
:100A4000070EB46E196A1A6A256A266A276A286A26
:100A5000296A070E936E800E946E100E956E959E09
:100A60008C8E959C8C9C020EF46F43D5020EF46F15
:100A7000FA0EF56F23DEF42FFBD7010EFC6F6ADC54
:100A8000010EF06F480E0609CA6EFA0ECB6ECC6AE4
:100A90009D82010EF06FAF6B95948C84F1889D8AD6
:100AA000F088C00EF212F36BF3513C080AE3F26BCC
:100AB000B20EF16FF2C0EAFFF1C0E9FFEF6AF32B6B
:100AC000F3D7AF531FE1B0531CE00BD6F26BB20E5D
:100AD000F16FF2C0EAFFF1C0E9FFEF6AEA6A2C0E9B
:100AE000E96E2DD6010EF46FF66BB20EF56F3D0E6A
:100AF000F76FF86B15DF640EF56FE0DD95948C945D
:100B0000B06BDFD7F26BB20EF16F360EF66E020EDF
:100B1000F76E53D7010EF46FF66BB20EF56F3D0E04
:100B2000F76FF86BFDDE640EF56FC8DD938281A26E
:080B300001D0AF6BB8D7030040
:020000040030CA
:0E00000004CC191E0007A1000FC00FE00F4036
:00000001FF
;PIC18F4550
;CRC=6694  CREATED="05-jun.-17 16:23"
